:100000000C9430000C944D000C944D000C9477012E
:100010000C944D000C944D000C944D000C944D002C
:100020000C944D000C944D000C944D000C944D001C
:100030000C944D000C944D000C944D000C944D000C
:100040000C944D000C944D000C944D000C942D011B
:100050000C944D001F1C1F1E1F1E1F1F1E1F1E1F46
:1000600011241FBECFE5D4E0DEBFCDBF11E0A0E676
:10007000B0E0EEEEF6E302C005900D92A43EB107AB
:10008000D9F714E0A4EEB1E001C01D92A134B1078C
:10009000E1F70E942B020C94751B0C940000AF92A8
:1000A000BF92CF92DF92EF92FF920F931F93861B26
:1000B000970BA0E0B0E0BC01CD0128EA32E040E0BF
:1000C00050E00E94291828EE33E040E050E00E9402
:1000D0006718B901CA010E9429188B019C018091FF
:1000E000F201F091F301A091F401B091F501F090CB
:1000F000F601D090F701C090F801A090F901B82E58
:10010000B00E91E0B81608F090E08F2F810FE1E07B
:100110008F1708F0E0E0E92EE80E91E0E81608F00D
:1001200090E0E92B8A2F820FF1E08A1708F0F0E0C7
:10013000E80F91E0E81708F090E0F92B6B2F630FC0
:1001400091E06B1708F090E04F2F460F81E04617C3
:1001500008F080E0982B9F0D81E09F1508F080E06B
:10016000382F3D0D81E03D1508F080E0282F2C0D43
:1001700081E02C1508F080E08A0DB092F201E09247
:10018000F301E093F4014093F5019093F60130936D
:10019000F7012093F8018093F9018091FA018F5FB4
:1001A0008093FA011F910F91FF90EF90DF90CF9015
:1001B000BF90AF900895AF92BF92CF92DF92EF922F
:1001C000FF920F931F937B018C0180E090E0A0E0F1
:1001D000B0E420E030E040E050E060E070E0590141
:1001E0006A01A82AB92ACA2ADB2A56954795379563
:1001F0002795EA14FB040C051D0540F0282B392B2C
:100200004A2B5B2BEA18FB080C091D09E2E0B695A6
:10021000A79597958795EA95D1F76F5F7F4F6031E6
:100220007105E9F62E153F054007510760F42F3F91
:100230008FEF380780E0480780E0580720F42F5FF1
:100240003F4F4F4F5F4FC9011F910F91FF90EF90AC
:10025000DF90CF90BF90AF9008951F920F920FB68E
:100260000F9211242F933F934F935F936F937F933C
:100270008F939F93AF93BF93EF93FF93C89908C059
:1002800080E49CE90197F1F7C89BFECF0E9402052C
:10029000C99908C080E49CE90197F1F7C99BFECF9A
:1002A0000E949404CA9908C080E49CE90197F1F780
:1002B000CA9BFECF0E941704CB9908C080E49CE93A
:1002C0000197F1F7CB9BFECF0E949C03FF91EF912A
:1002D000BF91AF919F918F917F916F915F914F915E
:1002E0003F912F910F900FBE0F901F9018951F9266
:1002F0000F920FB60F921124AF92BF92CF92DF925E
:10030000EF92FF920F931F932F933F934F935F931F
:100310006F937F938F939F93AF93BF93EF93FF93CD
:100320000E949B029093EF018093EE018091ED017A
:10033000882349F40E94A5029093F1018093F00173
:1003400081E08093ED012091EE013091EF01609109
:10035000F0017091F101CB010A968217930718F40E
:10036000C9010E944F006091EE017091EF01209150
:10037000F0013091F101C9010A976817790718F463
:10038000C9010E944F004091EE015091EF01209170
:10039000F0013091F101C9010A964817590708F098
:1003A00041C02A50304024173507E0F59091FA01FA
:1003B000892F8952893010F5A92E2091F2013091B0
:1003C000F3014091F4015091F5016091F6017091B3
:1003D000F7018091F8019091F901BB24CC24DD2430
:1003E000EE24FF2400E010E00E94B411B901CA011C
:1003F0000E94DB009093FC018093FB011092ED01C1
:100400001092FA011092F2011092F3011092F4018D
:100410001092F5011092F6011092F7011092F80176
:100420001092F901FF91EF91BF91AF919F918F9140
:100430007F916F915F914F913F912F911F910F91FC
:10044000FF90EF90DF90CF90BF90AF900F900FBED6
:100450000F901F901895EF920F930E94BC080E9476
:100460004B080E9497020E943E1178940E94451109
:100470008CE06CE04FE127E101E0A3E2EA2E0E946C
:1004800066078BE092E00E94430F8093400488232C
:1004900009F046C080E690E00E94BE0B882389F5F3
:1004A00060E070E080E090E00E948E0A85E392E0D8
:1004B00060E072E045E354E00E94170E80E090E0B7
:1004C00060E070E045E354E00E94170E60E072E0E7
:1004D00080E090E00E948E0A85E392E060E072E0A6
:1004E00045E354E00E94170E80E090E060E070E089
:1004F00045E354E00E94170E0E94830889E690E0CD
:1005000002C08CE690E00E94AF0880E090E00E947C
:10051000430F0E9483088BE790E00E94AF0806C05B
:100520000E94830886E890E00E94AF08FFCF86B162
:10053000876886B908953A9A39983898369A3699DC
:10054000FECF24B135B1C90108953A9A3998389A45
:10055000369A3699FECF24B135B1C90108958091FC
:10056000E40163E00E9448189093E401913051F057
:10057000913018F0923081F40AC00E94830880E91B
:1005800090E00EC00E94830885E990E009C00E94B7
:10059000830881EA90E004C00E9483088BEA90E01F
:1005A0000E94AF0808951F938091E501823061F4A5
:1005B00011E01093E6018FE00E9459081093E601C4
:1005C00080E061E00E9472088091E501882351F487
:1005D0008091E601882331F40E94830884EB90E047
:1005E0000E94AF081F910895EF92FF920F931F93FF
:1005F0000E94830887EE91E068EE71E049EE51E0D9
:100600002AEE31E00BEE11E0ECEEEE2EE1E0FE2EF4
:100610000E94D5078DB79EB70A970FB6F8949EBF74
:100620000FBE8DBFEDB7FEB7319682E0E82E82E0B7
:10063000F82EADB7BEB71296FC92EE92119782ECEF
:1006400090E0938382838091EA0184831582809174
:10065000EB01868317828091EC01808711860E94CE
:10066000D418EDB7FEB7319607E314E0ADB7BEB7C7
:1006700012961C930E93119781ED90E093838283E1
:100680008091E901848315828091E8018683178235
:100690008091E701808711860E94D4188DB79EB79C
:1006A0000A960FB6F8949EBF0FBE8DBFC7010E9479
:1006B000AF0881E060E00E947208C8010E94AF08A4
:1006C0001F910F91FF90EF900895EF920F938091FB
:1006D000E7016091E8014091E9012091EA01009170
:1006E000EB01E090EC010E9466070E94F402809109
:1006F000E601833081F0843028F48130B1F082301B
:10070000A1F407C0853059F0853038F0863069F49F
:1007100009C080E005C080E006C081E007C081E03C
:1007200064E005C081E067E002C080E061E00E9413
:1007300072080F91EF9008958091E501813039F4AE
:100740008091E4018F5F8093E4010E94AF02809169
:10075000E501823009F05CC09091E601892F81505B
:10076000863008F055C0933031F1943030F4913038
:1007700061F0923009F04AC013C0953091F1953084
:1007800028F1963009F042C037C08091EA018150CB
:100790008093EA018F3FD1F587E18093EA0136C06B
:1007A0008091EB0181508093EB018F3F79F58BE3D2
:1007B0008093EB012BC08091EC0181508093EC0180
:1007C0008F3F21F58BE38093EC0120C08091E901FC
:1007D00081508093E9018823C9F48FE18093E90176
:1007E00015C08091E80181508093E801882371F45D
:1007F0008CE08093E8010AC08091E70181508093EA
:10080000E7018F3F19F483E68093E7010E946503B7
:100810008091E501882351F48091E601882331F429
:100820000E94830884EB90E00E94AF0808958091B5
:10083000E501813071F48091E401882319F483E0AB
:100840008093E4018091E40181508093E4010E944F
:10085000AF028091E501823009F057C09091E60126
:10086000892F8150863008F050C0933019F19430B0
:1008700030F4913059F0923009F045C011C09530F4
:1008800071F1953008F19630F1F534C08091EA01AC
:100890008F5F8093EA018831B1F51092EA0133C08D
:1008A0008091EB018F5F8093EB018C3361F51092A7
:1008B000EB0129C08091EC018F5F8093EC018C33B8
:1008C00011F51092EC011FC08091E9018F5F8093B8
:1008D000E9018032C1F481E08093E90114C0809184
:1008E000E8018F5F8093E8018D3069F481E08093A7
:1008F000E80109C08091E7018F5F8093E7018436AA
:1009000011F41092E7010E9465038091E5018823AC
:1009100051F48091E601882331F40E94830884EB2E
:1009200090E00E94AF0808958091E501823051F572
:100930009091E601892F8150863020F58E5F80935B
:10094000E601843081F0853028F4823041F0833034
:1009500091F407C0853049F0863069F409C080E021
:1009600005C080E006C081E00AC081E064E008C004
:1009700081E067E005C081E08093E60180E061E00E
:100980000E9472088091E501813069F58091E4014F
:10099000813059F0813018F08230E1F40EC082E0ED
:1009A0008093E5010E94F4021EC082E08093E5017D
:1009B0000E94F4020E94D30216C08093E50181E0F8
:1009C00060E00E94720880EE90E00E94AF080E94F2
:1009D000361109C082E08093E5010E9483088BEA0A
:1009E00090E00E94AF088091E501882351F4809146
:1009F000E601882331F40E94830884EB90E00E9492
:100A0000AF08089581E08093E5011092E40110920F
:100A1000E6010E943C118CE00E9459080E94830864
:100A200080E990E00E94AF080895DF92EF92FF9274
:100A30000F931F93D82E7A018B0187FF0CC087E795
:100A400040E050E060E070E00E941505823008F060
:100A500040C08FE7D822C49A8FEF8FB9779BFECF23
:100A60008FB1C4988FEF8FB9779BFECF8FB1DFB86E
:100A7000779BFECF812F9927AA27BB278FB9779B1A
:100A8000FECFC801AA27BB278FB9779BFECFBB2714
:100A9000A12F902F8F2D8FB9779BFECFEFB8779B2B
:100AA000FECF80E4D81611F485E906C088E4D81694
:100AB00011F487E801C081E08FB9779BFECF9AE0FF
:100AC0002FEF2FB9779BFECF8FB187FF02C09150D8
:100AD000C1F71F910F91FF90EF90DF900895EF9273
:100AE000FF920F931F93CF93DF937C01E9018091D5
:100AF000FF0183FD07C039E0440F551F661F771FB4
:100B00003A95D1F781E50E941505882309F03AC08E
:100B100080E49CE93FEF3FB9779BFECF2FB12F3F99
:100B200019F40197C1F72EC02E3F61F52227332714
:100B30002C1B3D0B2E5F3D4F201B310B209739F0B6
:100B40008FEF8FB9779BFECF9FB12197D1F7E1143B
:100B5000F10471F09FEF9FB9779BFECF8FB1F70142
:100B600080830150104021F00894E11CF11CF3CF68
:100B70008FEF8FB9779BFECF9FB121503040C9F7DF
:100B800090E001C091E0C49A8FEF8FB9779BFECFC0
:100B90008FB1892FDF91CF911F910F91FF90EF902F
:100BA0000895FC010097F9F02091FD013091FE01BC
:100BB00009C080818FB9779BFECF3196415050405C
:100BC000215030404115510529F43093FE01209306
:100BD000FD0107C02115310561F71092FE01109249
:100BE000FD0190E059C0411551056105710509F1FC
:100BF0008091FF0183FD07C0E9E0440F551F661F88
:100C0000771FEA95D1F788E50E941505882311F032
:100C100091E042C08FEF8FB9779BFECF8EEF8FB9F7
:100C2000779BFECF80E092E09093FE018093FD01E0
:100C3000D8CF8091FD019091FE01029604C01FB8AB
:100C4000779BFECF01970097D1F78FEF8FB9779BF6
:100C5000FECF8FB18F718530C1F428E833E16FEF9B
:100C600040E951E005C0CA010197F1F72150304039
:100C70006FB9779BFECF8FB18F3F21F021153105E2
:100C800091F703C090E0232B09F491E0C49A8FEF11
:100C90008FB9779BFECF8FB1892F0895AF92BF9206
:100CA000CF92DF92EF92FF920F931F93DF93CF9338
:100CB00000D000D0CDB7DEB78091FF01882351F07E
:100CC000C49908C080E090E040E050E060E070E04F
:100CD0000E94D1050E940211C49A8AE09FEF9FB939
:100CE000779BFECF2FB18150D1F780E440E050E0F8
:100CF00060E070E00E941505813009F07AC088E458
:100D00004AEA51E060E070E00E941505813009F088
:100D100047C06E010894C11CD11C76019FEF9E0153
:100D20002B5F3F4F9FB9779BFECF8FB1F701819328
:100D30007F01E217F307B1F78B81813009F059C0C9
:100D40008C818A3A09F055C000E117E290E9A92E9A
:100D500091E0B92E07C0C5010197F1F7015010408D
:100D600009F447C089EE40E050E060E070E40E9482
:100D70001505882381F759C09FEF9FB9779BFECF58
:100D80008FB1F60181936F01EE15FF05B1F78981EF
:100D900086FD03C084E0F82E2DC00CE0F02E2AC0A2
:100DA00089EE40E050E060E070E00E94150582307E
:100DB00028F011E4E12EFF24F39404C0B9EEEB2EE9
:100DC000A2E0FA2E00E117E2F0E9CF2EF1E0DF2EEB
:100DD00006C0C6010197F1F70150104051F08E2D69
:100DE00040E050E060E070E00E941505882389F73C
:100DF00027C0FF24F092FF01C49A8FEF8FB9779B31
:100E0000FECF8FB180E0FF2009F481E00F900F90BA
:100E10000F900F90CF91DF911F910F91FF90EF9066
:100E2000DF90CF90BF90AF9008958AE740E050E008
:100E300060E070E00E941505882309F49DCFD9CFAA
:100E400080E540E052E060E070E00E9415058823F4
:100E500081F6D0CF282F6AE00E94481896E0899F3B
:100E6000C0011124820F0895282F50E0E4E5F0E03E
:100E700091E005C08491480F511D9F5F31969617F0
:100E8000C8F3633040F0822F90E083709070892B1C
:100E900011F44F5F5F4F30E08DE691E0BC01269F7B
:100EA000C001279F900D369F900D112481502D5F1A
:100EB0003F4F3595279535952795820F840F90E004
:100EC000069667E070E00E9454180895BF92CF9292
:100ED000DF92EF92FF920F931F93D82EF62E142FCE
:100EE000B22EC02E0E2D0C3308F056C08BE38C159D
:100EF00008F452C087E1821708F44EC0442309F475
:100F00004BC0403208F048C0662309F445C08CE06D
:100F1000861708F441C083E68D1508F43DC0E62F1E
:100F2000F0E0ED5AFF4FE491E41710F480E035C093
:100F30008D2D0E943407E82E80ED0E94771180E00D
:100F40000E949811802F0E942A070E9498118C2DD0
:100F50000E942A070E9498118B2D0E942A070E9446
:100F600098118E2D0E942A070E949811812F0E94AD
:100F70002A070E9498118F2D0E942A070E9498111B
:100F80008D2D0E942A070E94981180E00E949811DE
:100F90000E94521181E001C088E01F910F91FF90E3
:100FA000EF90DF90CF90BF9008954F925F926F9235
:100FB0007F928F929F92AF92BF92CF92DF92EF92E9
:100FC000FF920F931F932C013B014A0159016801C5
:100FD00080ED0E94771180E00E9498110E945211CA
:100FE00081ED0E9495110E94A6118F77982F9295FE
:100FF0009F700AEF1FEF909F902D1124980FF7011B
:1010000090830E94A611982F92959F70909F902D8B
:101010001124980FF60190830E94A611982F9295A3
:101020009F70909F902D1124980FF50190830E943E
:10103000A6110E94A611982F92959F70909F902DB7
:101040001124980FF40190830E94A611982F929575
:101050009F70909F902D1124980FF30190830E9410
:10106000AD11982F92959F70909F902D1124980FFD
:10107000F20190830E9452111F910F91FF90EF9007
:10108000DF90CF90BF90AF909F908F907F906F90A8
:101090005F904F9008950E944D1185E38A95F1F776
:1010A0000895837F886085BB0000877F85BB000033
:1010B0000895982F937F986095BB0000977F95BB0C
:1010C000000028EC30E0F9013197F1F78295807F3C
:1010D000886085BB0000877F85BB0000C901019740
:1010E000F1F70895823070F4603160F4882329F4B8
:1010F000862F80680E9459080895605C862F80685A
:101100000E945908089580E80E94590880E49FE1F0
:101110000197F1F781E00E94590884EF91E020E9FE
:1011200031E0F9013197F1F70197D9F70895982F38
:101130009C6095BB0000977F95BB000020E43FE1D9
:10114000F9013197F1F78295807F8C6085BB0000B3
:10115000877F85BB0000C9010197F1F70895CF9300
:10116000DF93EC0103C021960E94970888818823B1
:10117000D1F7DF91CF9108950F931F938CEF84BB2C
:1011800015BA80E29EE420E931E0F9013197F1F7E8
:101190000197D9F780E30E94510880E29EE401970D
:1011A000F1F780E30E94510888EE93E020E931E0F6
:1011B000F9013197F1F70197D9F780E30E945108BF
:1011C00000E41FE1C8010197F1F780E20E94510895
:1011D000C8010197F1F788E20E9459088CE00E944B
:1011E000590881E00E94590886E00E9459081F9121
:1011F0000F910895CF92DF92EF92FF920F931F937A
:10120000CF93DF936C01C0910002D0910102FC01E9
:101210001182108224813581468157812130310528
:101220004105510509F45BC08E819F81A885B98570
:10123000281739074A075B0708F051C02115310507
:101240004105510539F48881833021F42E853F858D
:1012500048895989F60120873187428753872115AC
:1012600031054105510581F18EEFE82E8FEFF82E03
:101270008FEF082F8FEF182FE20EF31E041F151F9C
:101280008E819F81A885B9850297A109B109E816C9
:10129000F9060A071B0728F020E030E040E050E0A4
:1012A00017C02A8130E040E050E0C801B7010E9439
:1012B00029189B01AC018A899B89AC89BD89280FBB
:1012C000391F4A1F5B1F04C02E853F8548895989F5
:1012D000F601248735874687578780E001C081E083
:1012E000DF91CF911F910F91FF90EF90DF90CF9002
:1012F00008956F927F928F929F92AF92BF92CF92FA
:10130000DF92EF92FF920F931F93DF93CF9300D062
:1013100000D0CDB7DEB74B015C0160900002709049
:10132000010282E088169104A104B10408F4DDC032
:10133000F30186819781A085B18588169906AA0652
:10134000BB0608F0D2C08081823009F464C08330CB
:1013500009F485C0813009F0C8C0C401969587950D
:10136000880D991D9C013170892F992786956C01F4
:10137000EE24FF24F3014285538564857585CE01F3
:101380000196F1E02F3F3F0749F0C40ED51EE61E3F
:10139000F71EB701A60102E010E01EC04C0D5D1D56
:1013A0006E1D7F1D2FEF31E001E010E00E946F0500
:1013B000882309F09AC0F3014285538564857585B9
:1013C0004F5F5F4F6F4F7F4F4C0D5D1D6E1D7F1D3B
:1013D000CE01029620E030E00E946F05882309F0DC
:1013E00084C09A8180E02981622F70E0682B792B7C
:1013F000C40181709070892B39F014E0769567955F
:101400001A95E1F79B0128C09B0140E050E03F7036
:10141000407050706EC077276B2D5A2D492DF30107
:1014200082859385A485B585480F591F6A1F7B1F48
:1014300094013070220F331FCE01019602E010E0BC
:101440000E946F05882309F050C09A8180E02981AD
:1014500030E0822B932B9C0140E050E04AC0B50164
:10146000A401F7E07695679557954795FA95D1F7DA
:10147000F30182859385A485B585480F591F6A1F9E
:101480007B1F94012F773070220F331F220F331FE1
:10149000CE01019604E010E00E946F05882329F533
:1014A0008C8190E0A0E0B0E0582F4427332722271A
:1014B0008B8190E0A0E0B0E0DC0199278827282B01
:1014C000392B4A2B5B2B898190E0A0E0B0E0282BE0
:1014D000392B4A2B5B2B9A8180E0A0E0B0E0282BCF
:1014E000392B4A2B5B2B5F7004C021E030E040E0D9
:1014F00050E0B901CA010F900F900F900F90CF915B
:10150000DF911F910F91FF90EF90DF90CF90BF90F0
:10151000AF909F908F907F906F9008952F923F9201
:101520004F925F926F927F928F929F92AF92BF92F3
:10153000CF92DF92EF92FF920F931F93CF93DF939F
:10154000E82FC0910002D0910102209711F486E0AB
:1015500002C1898180FD02C085E0FDC0EA8CFB8C60
:101560000C8D1D8D4E2F592FCB01DA013C014D0101
:10157000E614F7040805190510F437014801EE8850
:10158000FF88088D198D1E8A1F8A188E198E611486
:1015900071048104910409F4DAC08A81A82EBB2465
:1015A000CC24DD24E9E0AA0CBB1CCC1CDD1CEA9594
:1015B000D1F7E114F10401051105B1F1170128017A
:1015C00008942108310841085108C401B301615051
:1015D000704080409040A60195010E9467187901F3
:1015E0008A01C201B101A60195010E946718E216A5
:1015F000F30604071507C0F088279927DC018A192C
:101600009B09AC09BD0982219321A421B5218E8BB0
:101610009F8BA88FB98F681A790A8A0A9B0A2AA118
:101620003BA14CA15DA133C02E8D3F8D48A159A196
:101630002AA33BA34CA35DA32AC0CA01B9010E94FF
:1016400079099B01AC01623071058105910508F4AF
:1016500080C08E819F81A885B985281739074A07E0
:101660005B0708F076C02AA33BA34CA35DA38E8939
:101670009F89A88DB98D8A0D9B1DAC1DBD1D8E8BBC
:101680009F8BA88FB98F6A187B088C089D08A614B9
:10169000B704C804D90488F2EE88FF88088D198D34
:1016A000E60CF71C081D191DEE8AFF8A088F198F9A
:1016B00080900002909001027EEFA72E7FEFB72E60
:1016C0007FEFC72E7FEFD72EA20EB31EC41ED51EEE
:1016D000F40186819781A085B1850297A109B1099E
:1016E000A816B906CA06DB06A0F5228130E040E064
:1016F00050E0C601B5010E9429189B01AC01F4011C
:1017000082899389A489B589280F391F4A1F5B1FD5
:101710002115310541055105E1F069E01695079560
:10172000F794E7946A95D1F78A8190E00197AA2708
:1017300097FDA095BA2FE822F9220A231B232E0D2C
:101740003F1D401F511F2EA33FA348A759A780E06C
:1017500002C0198281E0DF91CF911F910F91FF901C
:10176000EF90DF90CF90BF90AF909F908F907F9041
:101770006F905F904F903F902F9008952F923F92DF
:101780004F925F926F927F928F929F92AF92BF9291
:10179000CF92DF92EF92FF920F931F93DF93CF933D
:1017A000CDB7DEB7EF970FB6F894DEBF0FBECDBF53
:1017B0004C0120900002309001022114310411F4F8
:1017C00096E0B5C1F1011182CE010196988B8F8709
:1017D00003C00894811C911CF40180818032C9F3FC
:1017E0008F3219F40894811C911C198A1A8A1B8A59
:1017F0001C8AF4018081813250F4CE010D960E9442
:10180000FA08982F1D8E882309F43EC190C1CE019D
:1018100088969FAF8EAFAF85B889FD018BE090E0D1
:1018200002C020E2219301972FEF8F3F9207C9F763
:1018300038E01DAE20E002C03BE028E0F4018DADB1
:10184000E80FF11D90818F5F8DAF9132B0F09F3224
:10185000A1F09E3211F0231728F0383071F49E3237
:1018600059F30BC0892F81568A3108F49052FD013B
:10187000E20FF11D90832F5FE1CF1B961C921B9707
:10188000913218F491E01B969C93CE010D960E9424
:10189000FA08982F882309F0CCC0498D5A8D6B8D9A
:1018A0007C8D2D853E852F703070F5E0220F331F23
:1018B000FA95E1F7CE014D9600E210E00E946F0527
:1018C000882309F058C18D8D882309F44AC148A5A1
:1018D00043FD12C02F853889D901FE017D968EAD5A
:1018E0009FADE817F90709F43EC190818C919817D4
:1018F00019F431961196F3CF009100021091010274
:10190000AD84BE840894A11CB11CA114B10409F4D7
:1019100028C1298D3A8D4B8D5C8D211531054105EE
:10192000510509F41EC1C5018F709070892B09F013
:101930007DC02F5F3F4F4F4F5F4F298F3A8F4B8FA7
:101940005C8F4D895E896F89788D411551056105E0
:10195000710541F4F80184819581A816B90608F053
:1019600000C164C0F801828190E001979501E4E034
:1019700036952795EA95E1F782239323892B09F081
:1019800055C0CB01BA010E9479099B01AC016230BC
:1019900071058105910508F4EEC0F80186819781F3
:1019A000A085B185281739074A075B0708F0D9C019
:1019B0002D8B3E8B4F8B588FC0900002D090010230
:1019C0006EEFE62E6FEFF62E6FEF062F6FEF162FEE
:1019D000E20EF31E041F151FF60186819781A08574
:1019E000B1850297A109B109E816F9060A071B0794
:1019F00028F020E030E040E050E014C0F601228101
:101A000030E040E050E0C801B7010E9429189B0176
:101A1000AC01F60182899389A489B589280F391F01
:101A20004A1F5B1F298F3A8F4B8F5C8FBE86AD8616
:101A300034CF833009F07BC0EF85F8898385882314
:101A400009F497C074C044FF94C0FDAD8F0E911C83
:101A50005AA8442429A930E02429352940E050E03F
:101A6000A9013327222778AC66248FA990E0862924
:101A70009729A0E0B0E0282B392B4A2B5B2B298B30
:101A80003A8B4B8B5C8BC7CE8D8D882309F44EC06F
:101A900088A584FD4BC03AA920E089A990E0282BB5
:101AA000392B40E050E0A9013327222798AD80E090
:101AB0006FA970E0862B972BA0E0B0E0282B392B84
:101AC0004A2B5B2BF101268F378F40A351A32CADFE
:101AD00030E040E050E0522F4427332722278BADDF
:101AE00090E0A0E0B0E0DC0199278827282B392B73
:101AF0004A2B5B2B89AD90E0A0E0B0E0282B392B7E
:101B00004A2B5B2B9AAD80E0A0E0B0E0282B392B6C
:101B10004A2B5B2B228F338F448F558F168A178A5F
:101B2000108E118E81E0818390E001C093E0892FB7
:101B3000EF960FB6F894DEBF0FBECDBFCF91DF9109
:101B40001F910F91FF90EF90DF90CF90BF90AF90DB
:101B50009F908F907F906F905F904F903F902F90CD
:101B6000089593E069CFF9018385882309F46BCF49
:101B70008BCF94E0DCCF91E0DACFCF92DF92EF927F
:101B8000FF920F931F93CF93DF93EC016A017B01C8
:101B90002EEF31E002E010E00E946F05882311F083
:101BA00043E03BC0998180E0288130E0822B932B79
:101BB00085559A4A11F042E030C0CE01B701A60126
:101BC00026E330E002E010E00E946F05882359F41C
:101BD000998180E0288130E0822B932B86549144B8
:101BE00011F440E01AC0CE01B701A60122E530E0B1
:101BF00002E010E00E946F05882311F041E00DC063
:101C000040E0998180E0288130E0822B932B86543C
:101C1000914409F441E081E04827842FDF91CF917E
:101C20001F910F91FF90EF90DF90CF9008954F920A
:101C30005F926F927F928F929F92AF92BF92CF925C
:101C4000DF92EF92FF920F931F93CF93DF93FC01EC
:101C50005B013A01C0910002D0910102DA011D92AC
:101C60001C92209711F486E0FDC0898190E080FDF0
:101C700002C085E0F7C0807490706115710589F429
:101C8000892B59F080E090E040E050E060E070E0A7
:101C90000E94D105882309F0E3C089818F7B898365
:101CA000DDC0892B51F48E899F89A88DB98D8070F4
:101CB0009E7F8E8B9F8BA88FB98F2A8D3B8D4C8DED
:101CC0005D8D8E899F89A88DB98D281B390B4A0B94
:101CD0005B0BC501A0E0B0E0281739074A075B0796
:101CE00008F459014F01412C02E0502EB3C02E8957
:101CF0003F89488D598DC9019170892B09F06CC0BD
:101D0000DA01C90119E0B695A795979587951A95B7
:101D1000D1F7FA80FA94F822D1F421153105410562
:101D2000510529F46E8D7F8D88A199A106C06AA105
:101D30007BA18CA19DA10E9479096230710581056A
:101D4000910508F48DC06AA37BA38CA39DA3009189
:101D50000002109101022AA13BA14CA15DA12250D9
:101D6000304040405040F80186819781A085B18580
:101D70000297A109B109281739074A075B0708F03C
:101D80006FC0628170E080E090E00E9429189B01A2
:101D9000AC01F80182899389A489B589280F391F7C
:101DA0004A1F5B1F211531054105510509F458C033
:101DB000BA01A9014F0D511D611D711D4EA35FA3F5
:101DC00068A779A780E090E00E94D105882309F0F8
:101DD00047C08981806489838E899F89917092012F
:101DE000281B390B65012A153B0508F469017601AA
:101DF00000E010E0C401B801A7010E94D1058823CA
:101E000079F58E899F89A88DB98D8E0D9F1DA01F94
:101E1000B11F9C018E8B9F8BA88FB98FD3018D91A1
:101E20009C9111978C0D9D1D8D939C933170232B4C
:101E300069F480E090E040E050E060E070E00E94F3
:101E4000D105882369F489818F7B89838C0C9D1C43
:101E5000AC18BD08A114B10409F049CF80E002C05C
:101E6000198281E0DF91CF911F910F91FF90EF9048
:101E7000DF90CF90BF90AF909F908F907F906F90AA
:101E80005F904F9008954F925F926F927F928F92E2
:101E90009F92AF92BF92CF92DF92EF92FF920F93F9
:101EA0001F93DF93CF93CDB7DEB7A4970FB6F89407
:101EB000DEBF0FBECDBF4C01109201021092000296
:101EC000009709F483C10E944E0680FF02C082E0A1
:101ED00082C17E010894E11CF11CC70140E050E082
:101EE00060E070E00E94BD0D813021F0AA24BB2487
:101EF00065013AC0C70140E050E060E070E02EEBC1
:101F000031E000E110E00E946F05882309F060C114
:101F10008D81882309F45EC18C8590E0A0E0B0E05B
:101F2000D82ECC24BB24AA248B8590E0A0E0B0E07E
:101F3000DC0199278827A82AB92ACA2ADB2A898599
:101F400090E0A0E0B0E0A82AB92ACA2ADB2A9A8544
:101F500080E0A0E0B0E0A82AB92ACA2ADB2AC7019B
:101F6000B601A5010E94BD0D833009F431C188235B
:101F700009F030C1CE010196B601A5012DE030E097
:101F800004E210E00E946F05882309F021C19B85BF
:101F900080E02A8530E0822B932B7C0100E010E06A
:101FA000E114F1040105110519F58B8D90E0A0E015
:101FB000B0E0182F0027FF24EE248A8D90E0A0E0E7
:101FC000B0E0DC0199278827E82AF92A0A2B1B2B85
:101FD000888D90E0A0E0B0E0E82AF92A0A2B1B2BBC
:101FE000998D80E0A0E0B0E0E82AF92A0A2B1B2BAB
:101FF0002C8130E040E050E0C801B7010E94291870
:102000002B013C019B8180E02A8130E0822B932BC5
:10201000A0E0B0E0A80EB91ECA1EDB1EF401A28625
:10202000B386C486D586898182839E8180E02D8196
:10203000422F50E0482B592B55834483988580E0EC
:102040002F8130E0822B932B7C0100E010E0E11423
:10205000F1040105110519F58F8990E0A0E0B0E0C9
:10206000182F0027FF24EE248E8990E0A0E0B0E036
:10207000DC0199278827E82AF92A0A2B1B2B8C894F
:1020800090E0A0E0B0E0E82AF92A0A2B1B2B9D89FA
:1020900080E0A0E0B0E0E82AF92A0A2B1B2B9B8104
:1020A00080E02A8130E0822B932BA0E0B0E0E81A98
:1020B000F90A0A0B1B0BE418F50806091709E4E0F6
:1020C00056954795EA95E1F7CA01A0E0B0E0E81A15
:1020D000F90A0A0B1B0BF401228130E040E050E0CA
:1020E000C801B7010E9467182E5F3F4F4F4F5F4FE7
:1020F000F4012683378340875187273FFFE03F075E
:10210000F0E04F07F0E05F0710F481E001C082E0EB
:10211000275F3F4F4040504008F083E0F401808348
:10212000833041F52BA130E040E050E0522F4427AE
:10213000332722278AA190E0A0E0B0E0DC019927B4
:102140008827282B392B4A2B5B2B88A190E0A0E015
:10215000B0E0282B392B4A2B5B2B99A180E0A0E023
:10216000B0E0282B392B4A2B5B2B26873787408BF7
:10217000518B0DC0F40182859385A485B585840DAE
:10218000951DA61DB71D86879787A08BB18BF4017F
:102190008481958124E0969587952A95E1F7A0E0C2
:1021A000B0E02285338544855585820F931FA41F97
:1021B000B51F840D951DA61DB71D828B938BA48B17
:1021C000B58B1182909201028092000280E003C0E0
:1021D00081E001C087E0A4960FB6F894DEBF0FBE81
:1021E000CDBFCF91DF911F910F91FF90EF90DF90C6
:1021F000CF90BF90AF909F908F907F906F905F90A7
:102200004F90089587B3806B87BBBE9888B3806F6B
:1022100088BB80E58DB981E08EB908958FB9779B31
:10222000FECF08958FEF8FB9779BFECF8FB10895C2
:102230008FB9779BFECF8FB10895982FFB0106C011
:1022400080818FB9779BFECF319691509923C1F74A
:102250000895982FFB0107C080818FB9779BFECF2F
:102260008FB1819391509923B9F7089514BC82E0FE
:1022700080BF8DE085BD089515BC08958BE98CBFA6
:1022800089E183BD82E889BF089512BE81E080BFE5
:102290008DE083BF089513BE089581E081B986EC77
:1022A00080B9089584E986BF06B604FCFDCF089581
:1022B000982F84EA86BF06B607FEFDCF81B1887FDE
:1022C000883021F0803111F081E0089593B984E8DD
:1022D00086BF06B607FEFDCF91B1987F983111F405
:1022E00080E0089580E0903409F081E0089544EAA8
:1022F00034E824E946BF06B607FEFDCF91B1987FCA
:10230000983011F09031B1F783B936BF06B607FEA9
:10231000FDCF91B1987F903211F0983529F426BF06
:1023200006B604FCFDCFE6CF08950E94581108952B
:1023300083B984E886BF06B607FEFDCF81B190E081
:10234000887F883209F091E0892F089584EC86BF58
:1023500006B607FEFDCF83B1089584E886BF06B6B2
:1023600007FEFDCF83B10895AEE5B0E0EAEBF1E101
:102370000C949D18A8E04E010894811C911CF40156
:102380006A2E11926A94E9F729833A834B835C831E
:102390006D837E838F839887CE010996FC0111920D
:1023A000AA95E9F7A986BA86CB86DC86ED86FE86F5
:1023B0000F87188B29843A844B845C84ED84FE84D7
:1023C0000F85188969807A808B809C806DA67EA697
:1023D0008FA698AA6D807E808F809884E114F10486
:1023E0000105110509F0B3C3621473048404950454
:1023F00008F03DC100E0201600E0300601E0400694
:1024000000E0500688F41FEF211631044104510406
:1024100039F030F048E0E42EF12C012D112D18C0D8
:10242000EE24FF24870114C020E0221620E03206AB
:1024300020E0420621E0520630F038E1E32EF12C94
:10244000012D112D05C020E1E22EF12C012D112DC1
:10245000D201C1010E2C04C0B695A795979587951A
:102460000A94D2F78C519F4FDC012C9180E290E0CE
:10247000A0E0B0E08E199F09A00BB10B7C018D018B
:10248000E21AF10801091109E114F104010511052D
:10249000A1F10E2C04C0220C331C441C551C0A94C0
:1024A000D2F7A40193010E2C04C0220F331F441F46
:1024B000551F0A94D2F780E290E08E199F096DA40F
:1024C0007EA48FA498A804C0969487947794679468
:1024D0008A95D2F7622A732A842A952AADA4BEA4CB
:1024E000CFA4D8A804C0AA0CBB1CCC1CDD1CEA9449
:1024F000D2F7ADA6BEA6CFA6D8AA6201EE24FF24CD
:10250000CDAADEAAEFAAF8AE920181012070307048
:1025100009AF1AAF2BAF3CAFC401B301A7019601BD
:102520000E9467187B018C01C401B3012DA93EA94B
:102530004FA958AD0E946718C901DA013C014D014D
:10254000C401B30129AD3AAD4BAD5CAD0E94291871
:102550009B01AC018701FF24EE24ADA4BEA4CFA44F
:10256000D8A8C601AA27BB2757016801A82AB92AFB
:10257000CA2ADB2AA216B306C406D506E0F40894DC
:102580006108710881089108A20CB31CC41CD51CF9
:10259000A214B304C404D50470F0A216B306C40692
:1025A000D50648F408946108710881089108A20CC6
:1025B000B31CC41CD51CA21AB30AC40AD50AC6018E
:1025C000B5012DA93EA94FA958AD0E9467187B01FE
:1025D0008C01C601B5012DA93EA94FA958AD0E9495
:1025E0006718C901DA015C016D01C601B50129ADA9
:1025F0003AAD4BAD5CAD0E9429189B01AC0187013F
:10260000FF24EE248DA59EA5AFA5B8A9A070B0703B
:10261000E82AF92A0A2B1B2BE216F30604071507F2
:10262000C0F40894A108B108C108D108E20CF31C59
:10263000041D151DE214F3040405150550F0E216FF
:10264000F3060407150728F40894A108B108C10887
:10265000D108D3019927882786017501E82AF92A2C
:102660000A2B1B2BE9AAFAAA0BAB1CABCFC4211473
:1026700031044104510471F461E070E080E090E0C5
:1026800020E030E040E050E00E946718C901DA0124
:102690001C012D0100E0201600E0300601E040069C
:1026A00000E0500688F41FEF211631044104510464
:1026B00031F028F048E050E060E070E017C040E002
:1026C00050E060E070E012C020E0221620E0320608
:1026D00020E0420621E0520628F048E150E060E0A8
:1026E00070E004C040E150E060E070E0D201C10160
:1026F000042E04C0B695A795979587950A94D2F7AE
:102700008C519F4FDC012C91E0E2EE2EF12C012D3B
:10271000112DD801C701841B950BA60BB70B821B8B
:102720009109A109B1090097A105B10561F46401FE
:102730005301A218B308C408D50831E0632E712CE8
:10274000812C912C1EC16F968FAF6F97082E04C0FD
:10275000220C331C441C551C0A94D2F7EE2DE81BA6
:10276000640153010E2E04C0D694C794B794A79465
:102770000A94D2F7A40193016F960FAC6F9704C02F
:10278000220F331F441F551F0A94D2F76DA47EA455
:102790008FA498A80E2E04C096948794779467947B
:1027A0000A94D2F784017301E22AF32A042B152B31
:1027B000E9A6FAA60BA71CA7320188249924920146
:1027C00081012070307021960CAF1DAF2EAF3FAF4E
:1027D0002197C601B501A40193010E9467187B01EE
:1027E0008C01C601B501A40193010E946718C901BB
:1027F000DA0125968CAF9DAFAEAFBFAF2597BC0178
:10280000CD0121962CAD3DAD4EAD5FAD21970E941F
:1028100029189B01AC018701FF24EE24A9A4BAA4C6
:10282000CBA4DCA4C601AA27BB275C016D01AE289E
:10283000BF28C02AD12AA216B306C406D50660F561
:1028400025966CAD7DAD8EAD9FAD259761507040E6
:102850008040904025966CAF7DAF8EAF9FAF25979F
:10286000A20CB31CC41CD51CA214B304C404D5040C
:1028700098F0A216B306C406D50670F461507040F5
:102880008040904025966CAF7DAF8EAF9FAF25976F
:10289000A20CB31CC41CD51CA21AB30AC40AD50AC4
:1028A000C601B501A40193010E9467187B018C0148
:1028B000C601B501A40193010E946718C901DA019C
:1028C0003C014D01C401B30121962CAD3DAD4EAD8F
:1028D0005FAD21970E9429189B01AC018701FF245D
:1028E000EE2489A59AA5ABA5BCA5A070B070570130
:1028F0006801A82AB92ACA2ADB2AA216B306C40686
:10290000D506E0F408946108710881089108A20CCA
:10291000B31CC41CD51CA214B304C404D50470F0A9
:10292000A216B306C406D50648F4089461087108D7
:1029300081089108A20CB31CC41CD51C8DA59EA5B2
:10294000AFA5B8A96F960FAC6F9704C0880F991FF9
:10295000AA1FBB1F0A94D2F78DA79EA7AFA7B8AB3B
:10296000A21AB30AC40AD50A2596ECACFDAC0EAD8A
:102970001FAD2597D70199278827682A792A8A2A9F
:102980009B2A82012227332729960CAF1DAF2EAF39
:102990003FAF2997A2019101407050702D962CAF46
:1029A0003DAF4EAF5FAF2D97C601B50129962CAD57
:1029B0003DAD4EAD5FAD29970E9467187B018C013C
:1029C000C601B50129962CAD3DAD4EAD5FAD299741
:1029D0000E946718C901DA0161968CAF9DAFAEAF56
:1029E000BFAF6197BC01CD012D962CAD3DAD4EAD75
:1029F0005FAD2D970E9429189B01AC018701FF2430
:102A0000EE24ADA4BEA4CFA4D8A8C601AA27BB2794
:102A100057016801A82AB92ACA2ADB2AA216B306D6
:102A2000C406D50660F561966CAD7DAD8EAD9FADEB
:102A30006197615070408040904061966CAF7DAF6F
:102A40008EAF9FAF6197A20CB31CC41CD51CA214FF
:102A5000B304C404D50498F0A216B306C406D50680
:102A600070F4615070408040904061966CAF7DAFD3
:102A70008EAF9FAF6197A20CB31CC41CD51CA21AC9
:102A8000B30AC40AD50AC601B50129962CAD3DADDD
:102A90004EAD5FAD29970E9467187B018C01C6017E
:102AA000B50129962CAD3DAD4EAD5FAD29970E9485
:102AB0006718C901DA015C016D01C601B5012D96E7
:102AC0002CAD3DAD4EAD5FAD2D970E9429189B01F9
:102AD000AC018701FF24EE248DA59EA5AFA5B8A962
:102AE000A070B070E82AF92A0A2B1B2BE216F30615
:102AF00004071507C0F40894A108B108C108D1085B
:102B0000E20CF31C041D151DE214F3040405150565
:102B100050F0E216F3060407150728F40894A108FC
:102B2000B108C108D1086196ECACFDAC0EAD1FAD8B
:102B30006197D7019927882796018501082B192BC2
:102B40002A2B3B2B09AB1AAB2BAB3CAB62C26E14EE
:102B50007F048006910608F451C220E0E21620E0CE
:102B6000F20621E0020720E0120788F43FEFE316A7
:102B7000F1040105110531F028F048E050E060E073
:102B800070E017C040E050E060E070E012C040E04C
:102B9000E41640E0F40640E0040741E0140728F0A2
:102BA00048E150E060E070E004C040E150E060E0E7
:102BB00070E0D801C701042E04C0B695A79597957B
:102BC00087950A94D2F78C519F4FDC012C9130E20B
:102BD000A32EB12CC12CD12CD601C501841B950B81
:102BE000A60BB70B821B9109A109B1090097A1059A
:102BF000B10589F4E614F7040805190508F4F2C1D3
:102C00006DA47EA48FA498A8621473048404950410
:102C100008F0E8C1F3C16E968FAF6E97082E04C01E
:102C2000EE0CFF1C001F111F0A94D2F76A2D681BBF
:102C3000D201C101062E04C0B695A7959795879538
:102C40000A94D2F75C016D01AE28BF28C02AD12AB0
:102C5000ADA2BEA2CFA2D8A6720161016E960FAC42
:102C60006E9704C0CC0CDD1CEE1CFF1C0A94D2F73E
:102C7000C9A2DAA2EBA2FCA264015301062E04C091
:102C8000D694C794B794A7940A94D2F7D401C301F9
:102C90006E960FAC6E9704C0880F991FAA1FBB1FBA
:102CA0000A94D2F7EDA4FEA40FA518A904C01695A6
:102CB0000795F794E7946A95D2F737014801682A97
:102CC000792A8A2A9B2A6D8E7E8E8F8E98A2EDA0FD
:102CD000FEA00FA118A53801882499249801870126
:102CE0002070307065960CAF1DAF2EAF3FAF65976B
:102CF000C601B501A40193010E9467187B018C01F4
:102D0000C601B501A40193010E946718C901DA0147
:102D10001C012D01C201B10165962CAD3DAD4EAD3A
:102D20005FAD65970E9429189B01AC018701FF24C4
:102D3000EE24AD8CBE8CCF8CD8A0C601AA27BB27B1
:102D400057016801A82AB92ACA2ADB2AA216B306A3
:102D5000C406D50600F50894210831084108510839
:102D6000EDA0FEA00FA118A5AE0CBF1CC01ED11E69
:102D7000AE14BF04C006D10670F0A216B306C40696
:102D8000D50648F408942108310841085108AE0CD2
:102D9000BF1CC01ED11EA21AB30AC40AD50AC6019E
:102DA000B501A40193010E9467187B018C01C60143
:102DB000B501A40193010E946718C901DA013C0121
:102DC0004D01C401B30165962CAD3DAD4EAD5FAD77
:102DD00065970E9429189B01AC018701FF24EE240E
:102DE0008D8D9E8DAF8DB8A1A070B0705701680118
:102DF000A82AB92ACA2ADB2AA216B306C406D5060F
:102E000000F5089461087108810891086DA17EA100
:102E10008FA198A5A60EB71EC81ED91EA616B70666
:102E2000C806D90670F0A216B306C406D50648F443
:102E300008946108710881089108A60EB71EC81E83
:102E4000D91ED601C501821B930BA40BB50B898F2C
:102E50009A8FAB8FBC8FD1019927882764015301CA
:102E6000A82AB92ACA2ADB2AA9AABAAACBAADCAA02
:102E7000860175012FEF3FEF40E050E0E222F322A0
:102E800004231523A601662777276D964CAF5DAF07
:102E90006EAF7FAF6D97A9A0BAA0CBA0DCA06FEFFB
:102EA0007FEF80E090E0A622B722C822D92289A134
:102EB0009AA1ABA1BCA11D0144245524C801B701AE
:102EC000A60195010E94291869966CAF7DAF8EAF5F
:102ED0009FAF6997C801B701A20191010E9429180B
:102EE0003B014C016D966CAD7DAD8EAD9FAD6D9788
:102EF000A60195010E9429187B018C016D966CAD8D
:102F00007DAD8EAD9FAD6D97A20191010E942918F4
:102F10005B016C01A8019701260D371D481D591D45
:102F200069966CAC7DAC8EAC9FAC6997C401AA2746
:102F3000BB27280F391F4A1F5B1F2E153F0540076F
:102F4000510748F4E12CF12C61E0062F112DAE0C55
:102F5000BF1CC01ED11ECA01AA27BB27BC01CD01C0
:102F60006A0D7B1D8C1D9D1D698C7A8C8B8C9C8CB5
:102F7000661677068806990640F166157705880576
:102F8000990509F043C0D9019927882769962CAD86
:102F90003DAD4EAD5FAD699740705070820F931F8D
:102FA000A41FB51F2DA53EA54FA558A96E960FAC21
:102FB0006E9704C0220F331F441F551F0A94D2F787
:102FC000281739074A075B0708F509A91AA92BA989
:102FD0003CA9015010402040304009AB1AAB2BAB4C
:102FE0003CAB14C066247724430121E030E040E08C
:102FF00050E029AB3AAB4BAB5CAB0BC066247724FB
:10300000430119AA1AAA1BAA1CAA03C06624772482
:103010004301FE01719688E0DF011D928A95E9F770
:10302000A9A8BAA8CBA8DCA8A98ABA8ACB8ADC8AC4
:103030006D8A7E8A8F8A988E29A93A894B895C8904
:10304000662D7E898F89988DC25ADF4FE2E10C94FC
:10305000B918629FD001739FF001829FE00DF11DAE
:10306000649FE00DF11D929FF00D839FF00D749F02
:10307000F00D659FF00D9927729FB00DE11DF91FAE
:10308000639FB00DE11DF91FBD01CF01112408950B
:10309000991B79E004C0991F961708F0961B881FAA
:1030A0007A95C9F78095089597FB092E07260AD0CF
:1030B00077FD04D02ED006D000201AF470956195CB
:1030C0007F4F0895F6F7909581959F4F0895A1E25F
:1030D0001A2EAA1BBB1BFD010DC0AA1FBB1FEE1F92
:1030E000FF1FA217B307E407F50720F0A21BB30BDD
:1030F000E40BF50B661F771F881F991F1A9469F759
:1031000060957095809590959B01AC01BD01CF01B4
:103110000895AA1BBB1B51E107C0AA1FBB1FA6171E
:10312000B70710F0A61BB70B881F991F5A95A9F770
:1031300080959095BC01CD0108952F923F924F92BA
:103140005F926F927F928F929F92AF92BF92CF9237
:10315000DF92EF92FF920F931F93CF93DF93CDB740
:10316000DEB7CA1BDB0B0FB6F894DEBF0FBECDBFB8
:1031700009942A88398848885F846E847D848C8489
:103180009B84AA84B984C884DF80EE80FD800C8192
:103190001B81AA81B981CE0FD11D0FB6F894DEBF75
:1031A0000FBECDBFED010895AEE0B0E0EAEDF8E16D
:1031B0000C94AB180D891E8986E08C831A830983D1
:1031C0008FEF9FE79E838D839E01275E3F4FCE0149
:1031D00001966F89788DA9010E94F8182F81388592
:1031E000020F131FF80110822E96E4E00C94C7180A
:1031F000ABE0B0E0EEEFF8E10C949D183C012B0140
:103200005A01FC0117821682838181FD03C06FEF92
:103210007FEFC6C19AE0892E1E010894211C311C43
:10322000F3012381F20123FD859123FF81912F0179
:10323000882309F4B2C1853239F423FD859123FF37
:1032400081912F01853229F490E0B3010E94EB1A9D
:10325000E7CF982FFF24EE249924FFE1FF15D0F04B
:103260009B3269F09C3228F4903259F0933291F4F9
:103270000EC09D3249F0903369F441E024C052E021
:10328000F52A84E0F82A28C098E0F92A25C0E0E170
:10329000FE2A22C0F7FC29C0892F80538A3070F49F
:1032A000F6FE05C0989C902C1124980E15C0E89C41
:1032B000E02C1124E80EF0E2FF2A0EC09E3229F421
:1032C000F6FC6BC140E4F42A07C09C3619F450E8C0
:1032D000F52A02C0983649F4F20123FD959123FFA7
:1032E00091912F01992309F0B8CF892F855483300C
:1032F00018F08052833038F444E050E0A40EB51E3C
:103300005FE359830FC0933631F0933779F09335EB
:1033100009F056C020C0F5018081898342E050E069
:10332000A40EB51E610101E010E012C0F501C080DD
:10333000D180F6FC03C06FEF7FEF02C0692D70E013
:1033400042E050E0A40EB51EC6010E94E01A8C01B6
:103350005FE7F52214C0F501C080D180F6FC03C000
:103360006FEF7FEF02C0692D70E042E050E0A40EE5
:10337000B51EC6010E94D51A8C0150E8F52AF3FE4D
:1033800007C01AC080E290E0B3010E94EB1AEA94F1
:103390008E2D90E008171907A8F30EC0F601F7FC70
:1033A0008591F7FE81916F0190E0B3010E94EB1AC5
:1033B000E110EA94015010400115110579F7EAC0B7
:1033C000943611F0993669F5F7FE08C0F5012081B1
:1033D00031814281538184E090E00AC0F50180810F
:1033E00091819C01442737FD4095542F82E090E065
:1033F000A80EB91E9FE6F92257FF09C050954095C7
:10340000309521953F4F4F4F5F4FE0E8FE2ACA01AC
:10341000B901A1012AE030E00E94171BD82ED21872
:1034200040C0953729F41F2D1F7E2AE030E01DC0D3
:103430001F2D197F9F3661F0903720F4983509F0E1
:10344000ACC00FC0903739F0983709F0A6C004C05F
:1034500028E030E00AC0106114FD146020E130E083
:1034600004C014FD166020E132E017FF08C0F5012A
:10347000608171818281938144E050E008C0F50150
:1034800080819181BC0180E090E042E050E0A40E98
:10349000B51EA1010E94171BD82ED2188FE7F82E57
:1034A000F122F6FE0BC05EEFF522D91438F4F4FEDB
:1034B00007C0F2FC05C08FEEF82202C01D2D01C02E
:1034C000192DF4FE0DC0FE01ED0DF11D808180333C
:1034D00019F499EEF92208C01F5FF2FE05C003C07F
:1034E0008F2D867809F01F5F0F2DF3FC14C0F0FEBE
:1034F0000FC01E1510F09D2C0BC09D2C9E0C911A18
:103500001E2D06C080E290E0B3010E94EB1A1F5FFF
:103510001E15C0F304C01E1510F4E11A01C0EE24FC
:1035200004FF0FC080E390E0B3010E94EB1A02FF9A
:103530001DC001FD03C088E790E00EC088E590E063
:103540000BC0802F867891F001FF02C08BE201C092
:1035500080E2F7FC8DE290E0B3010E94EB1A06C016
:1035600080E390E0B3010E94EB1A9A94D914C0F35F
:10357000DA94F101ED0DF11D808190E0B3010E941C
:10358000EB1ADD20A9F706C080E290E0B3010E94AB
:10359000EB1AEA94EE20C1F743CEF30166817781FE
:1035A000CB012B96E2E10C94B918FC010590615017
:1035B00070400110D8F7809590958E0F9F1F089549
:1035C000FC016150704001900110D8F780959095F2
:1035D0008E0F9F1F08950F931F93CF93DF938C013E
:1035E000EB018B8181FF1BC082FF0DC02E813F81CB
:1035F0008C819D812817390764F4E881F981019352
:10360000F983E88306C0E885F985802F0995892B21
:1036100031F48E819F8101969F838E8302C00FEFCC
:103620001FEFC801DF91CF911F910F910895FA010B
:10363000AA27283051F1203181F1E8946F936E7FF1
:103640006E5F7F4F8F4F9F4FAF4FB1E03ED0B4E0E2
:103650003CD0670F781F891F9A1FA11D680F791F23
:103660008A1F911DA11D6A0F711D811D911DA11D34
:1036700020D009F468943F912AE0269F1124301944
:10368000305D3193DEF6CF010895462F4770405DDF
:103690004193B3E00FD0C9F7F6CF462F4F70405D8E
:1036A0004A3318F0495D31FD4052419302D0A9F7E9
:1036B000EACFB4E0A6959795879577956795BA95E3
:1036C000C9F700976105710508959B01AC010A2EA9
:1036D00006945795479537952795BA95C9F7620F80
:0E36E000731F841F951FA01D0895F894FFCF3F
:1036EE00746573742E747874006F6B0066696C6504
:1036FE00206E6F7420666F756E640066696C65204F
:10370E007772697465006E6F7420666C6173680001
:10371E0054696D65004368616E67652054696D6517
:10372E00004D6561737572696E67004572726F72D6
:10373E0021212100456E74657220746F206D656EB7
:10374E007500253032643A253032643A25303264C1
:10375E0000253032642E253032642E25303264003E
:10376E002E2E2E00000102020303030304040404A0
:10377E0004040404050505050505050505050505EF
:10378E0005050505060606060606060606060606CF
:10379E0006060606060606060606060606060606BB
:1037AE00060606060707070707070707070707079F
:1037BE00070707070707070707070707070707078B
:1037CE00070707070707070707070707070707077B
:1037DE00070707070707070707070707070707076B
:1037EE00070707070808080808080808080808084F
:1037FE00080808080808080808080808080808083B
:10380E00080808080808080808080808080808082A
:10381E00080808080808080808080808080808081A
:10382E00080808080808080808080808080808080A
:10383E0008080808080808080808080808080808FA
:10384E0008080808080808080808080808080808EA
:10385E0008080808080808080808080808080808DA
:04386E000808080836
:00000001FF
